:020000040000FA
:1000000000400020513D01008D3D01008F3D010069
:1000100000000000000000000000000000000000E0
:10002000000000000000000000000000913D010001
:100030000000000000000000933D0100953D01001C
:10004000973D0100A1690000B13E0100973D01000C
:10005000973D010000000000C17F0100973D0100B5
:1000600055970000973D0100F17A0100973D01008E
:10007000973D0100973D0100973D0100973D01002C
:10008000973D0100F93F0100973D0100973D0100B8
:10009000973D0100917901006D790100A998000058
:1000A000B9980000973D010000000000000000002A
:1000B0000000000000000000000000000000000040
:1000C000032310B50B40041C081C022B03D1124B58
:1000D0000B40062B02D10CF0BFFA09E00CF020FB1C
:1000E0001AF01CFF0B4B0A4A19F056F91AF0A4FE3D
:1000F0000A4B011C994205D909490A4821F08BFC99
:1001000013F0DBFB606816F07BFF074810BDC046AC
:10011000000000000000E03F070080FFFF03000038
:10012000ECF902006CB40200F8E00200C046C046E0
:10013000F7B5171C146801AA051C0E1C01F09CFDE4
:10014000402D05D1019B3C255A1EA4185B421C4042
:1001500023183B602A1C5A27B742BF413E3A5542FA
:100160006A417F42231CD2B2391C20F06DFA041C74
:100170000D1C4F2E3DD0532E08D1201C28F09DFD84
:100180000022011C201C07F097FB32E0662E06D1EE
:1001900003239C4302201A4B0443E01829E0642EF9
:1001A00009D1201C1AF00CFF032398430224144B9E
:1001B0002043C0181DE0002F0FD0104B0E4A12191B
:1001C0006B41201C002B04D1002A02DB24F0BBFD74
:1001D0000FE0291C24F0A8FD0BE0201C002905D10C
:1001E000084B9C4202D824F0C9FD02E0291C24F0EF
:1001F000B6FDFEBDC046C046000000400000000045
:1002000000008080FFFFFF3FF0B541188BB0041C59
:1002100008920993019101998C4200D313E120784F
:1002200007F0B6F8002801D00134F4E723782B2B2F
:1002300002D10134049005E004902D2B0ED101224F
:1002400001340492019B9C4208D383490027002279
:10025000251C069107973E1C039256E02278202326
:100260001A43692A2ED10199A21C914200D8BBE001
:1002700062781A436E2A00D0B6E0A2781A43662A42
:1002800000D0B1E0E21DE51C914200D8A8E0E27880
:100290001A43692A00D0A3E022791A436E2A00D0BB
:1002A0009EE062791A43692A00D099E0A2791A4344
:1002B000742A00D094E0E2791343792B00D08FE0C8
:1002C00005358DE06E2AC0D10199A21C914200D85B
:1002D0008AE062781A43612A00D085E0A27813434D
:1002E0006E2B00D080E0E51C00265C4F7FE02B7871
:1002F0006A1C191C303902920591092930D8022E46
:1003000007D10A237B43CF18029D019A9542EED371
:1003100054E0012E15D1059818F0EEFF069918F05B
:10032000CFFC011C039818F07BF9039006981AF093
:10033000F5FD484B464A19F0BBFF1AF041FE069006
:10034000E2E74749039818F0BBFC051C059818F034
:10035000D3FF011C281C18F063F900260390D3E793
:10036000002E02D12E2B02D126E0022E19D02022FF
:100370001A43652A15D1029A019B9A420BD26B78D7
:100380002B2B02D10235029505E02D2B03D102352E
:10039000012102950791029A019B9A424CD00226B4
:1003A000B2E708990026B14209D0202213436A2BF4
:1003B00005D1029D012602E00126A5E70026079B44
:1003C000002B00D07F42381C18F03AFF011C244853
:1003D00000F0E6FB011C039818F072FC071C06E015
:1003E000FF270026FF0502E0251C002600270499B0
:1003F000002902D080221206BF18A5421CD0019B02
:100400009D4206D2287806F0C3FF002814D001359B
:10041000F5E701998D420FD1002E02D1099A002AE9
:1004200002D01048104909E003239F4302200F4BDC
:100430000743F8180BB0F0BD0A480D4921F0EBFA5C
:10044000109902F0C1F900210491FEE6C046C046B1
:100450009A9999999999B93FCDCCCC3D0000C07F2C
:10046000000020416CB4020006FD02000000808004
:1004700023FD0200C046C04608B50CF051F91AF041
:100480004DFD0A4B084A19F013FF094A094B19F0B0
:10049000A5FA1AF095FD0323984302231843064B4F
:1004A000C01808BDC046C04600000000008066407D
:1004B000182D4454FB21094000008080C046C046EE
:1004C00008B50CF02DF91AF029FD0A4B084A19F06D
:1004D000EFFE094A094B19F081FA1AF071FD032366
:1004E000984302231843064BC01808BDC046C046B7
:1004F000182D4454FB210940000000000080664094
:1005000000008080C046C046F0B585B0041C019153
:10051000081C002117F0CCFF002805D02A492B48E1
:1005200021F079FA13F0C9F92379D90702D4A07917
:10053000617901E00520011C0EF07AFE0026071CFF
:1005400022790523D10700D4A3799E422EDA002513
:1005500022790523D10700D4A3799D4224DA2A1CED
:10056000311C201C23F038FC18F06AFE019918F0A9
:10057000A7FB1AF0D3FC114B0F4A18F00DFF104ADD
:10058000104B0290039117F059FF0923002804D063
:10059000029803991AF050FC031C2A1C381C311CC9
:1005A00023F0FDFB0135D3E70136C9E7381C05B060
:1005B000F0BDC046C046C046000000000000E03F5D
:1005C0000000000000002240E92D03006CB402008E
:1005D00038B5041C82070CD1114B02689A4208D12D
:1005E00010F040FD211D051C043021F0EDFE281CFB
:1005F00011E0201C0CF030F8C0231B06984204D1F7
:100600000649054824F090FB05E0C317C018584080
:1006100040000123184338BD0000004000000000E6
:10062000ACA90200C046C04608B50B4B1B78002B96
:1006300001D113F01BFD13F0C1FC064B044A17F067
:100640007FFF4904C00B084308BDC046C046C046F2
:1006500040420F0000000000722E0020C046C0463D
:100660002F4B70B51B78061C002B01D113F0FEFC3C
:1006700013F0A4FC254B244A17F062FF4B04C00B77
:10068000002400251843CD0B0023321CA4185D4123
:1006900080231B06984205D9002E03DB1C4A1D4B04
:1006A000A4185D41610CEB030B43E2031A481B499C
:1006B00080185941154B144A17F022FF194D041C9C
:1006C0002B78194E002B02D0336898421BD013F0C0
:1006D00075FC201A022802DC13F070FC841C210235
:1006E000124BA822D200090A99502A783460002AB5
:1006F00009D101222A70D2218022520289005A5047
:10070000C12189005A5070BD40420F000000000016
:1007100000000000010000003F420F000000000048
:10072000722E0020732E0020F028002000100140BF
:10073000F0B5837985B0041C9A0774D4DA0701D424
:1007400015F0D8F93C4D281C27F0DEFA071C281CB0
:1007500027F0D1FAA369E268061C981A18F070FD18
:10076000226A6369051C981A18F06AFD0290381C09
:100770001BF082FB0090381C1BF0D8F90190301C54
:100780001BF07AFB071C301C1BF0D0F9009903907A
:10079000029818F095FA0199061C281C18F090FA96
:1007A000011C301C18F0B6FBE369061C2069C01A56
:1007B00018F046FD039918F083FA391C041C281C14
:1007C00018F07EFA009918F07BFA011C201C17F033
:1007D00027FF391C041C029818F072FA019918F0CE
:1007E0006FFA011C201C17F01BFF011C301C1BF0B2
:1007F0004DFC124918F064FA1AF090FB0D4B0C4AAC
:1008000019F0ECF81AF0DCFB0021041C17F050FE84
:10081000002804D0201C094917F002FF041C201CEA
:1008200018F0EEFC00E0064805B0F0BDC046C0463A
:10083000EA2E4454FB211940D82A00200000B4437A
:1008400015FCFFFFC046C04670B5041C04201EF016
:10085000C3FA051C1648401B18F04EFD1AF05EFB4B
:10086000124B114A19F024FD00F026F80323061C50
:10087000281C9E431EF0BAFA2368002B0AD1301CB4
:100880001EF0AAFA20600028F6D1203E002EF3D1F7
:10089000084807E0B608B6009B19201C636027F0E3
:1008A000E5FC002070BDC046CDCCCCCCCCCCEC3F20
:1008B0000038002013FCFFFF38B50E4B0C4A041C17
:1008C0000D1C17F0D9FD002804D1201C291C1AF09A
:1008D000B3FA38BD074B064A201C291C19F078FFD3
:1008E0001AF0AAFA80231B06C018F2E7C046C046D9
:1008F000000000000000E041F0B58BB0061C1BF0CA
:1009000021FF374D0023EB56041C013336D0301C39
:100910001DF038FE002831D0301C324917F0DCFDC4
:10092000071E2ED1301C304917F0C2FD002825D0FB
:10093000042300932D4B301C019308971AF0EEFA14
:10094000224B214A6C46A261E3610023EB562061F1
:100950006161A060E160022B2FD068461DF050FE5F
:1009600000282AD0236A002B03D01DF005FF236A3C
:100970000360A069E1691AF023FB041C201C0BB082
:10098000F0BD03230093194B301C019300230893FF
:100990001AF0C4FA6C4620616161A060E1602978B8
:1009A000002904D10A4A0B4BA261E361D5E70A4A48
:1009B0000A4BA261E3610229CFD11DF0DDFE2223A3
:1009C0000360CFE7C046C046000000000000000002
:1009D000000000E0FFFFEF47000000000000F07F94
:1009E000F90000208071B142B5F1CFC28CEF020056
:1009F000F0B58BB0041C0E1C1BF0A6FF2A4F002381
:100A0000FB56051C013304D0301C1BF01DF90028D7
:100A100002D1281C0BB0F0BD201C1BF015F90028DA
:100A2000F7D0301C002117F03DFD0028F1D0012344
:100A300000931E4B201C0193002308931AF06EFABA
:100A4000041C0D1C301C029403951AF067FA3E78C2
:100A500004900591002E16D012491148021C0B1C5F
:100A600018F0BCFF06900791022E0ED11DF084FEF7
:100A700021230360089B002B0DD1069807991AF0DB
:100A80009FFA051CC5E70694079568461DF0B8FD5A
:100A90000028EFD1EAE71DF06FFE089B0360ECE74A
:100AA0000000000000000000F900002094EF0200A8
:100AB00070B58AB0041C1BF0CDFF354E0022B25633
:100AC000051C031C01320CD0201C1BF0BDF82B1C94
:100AD000002806D0201C002117F0FEFC2B1C00284B
:100AE00002D0181C0AB070BD2A4B0890201C01933C
:100AF0001AF014FA35780490059102900391002DB4
:100B00002AD1204B1E4A06920793201C002117F081
:100B1000C9FC002811D002230093022D26D068467C
:100B20001DF06EFD002821D0089B002B23D10698D4
:100B300007991AF045FA031CD3E701230093022D0D
:100B40000FD068461DF05CFD00280AD0124800F066
:100B500057FD06900791E7E70B4A0C4B0692079367
:100B6000D3E71DF009FE21230360EFE71DF004FE2B
:100B700022230360D8E71DF0FFFD089B0360D6E742
:100B8000000000E0FFFFEFC7000000000000F0FFE2
:100B9000F90000209CEF0200A0EF0200C046C04612
:100BA000F0B546464F46C0B48BB0051C0C1C1CF07B
:100BB000AFF8BB4E0023F3568046071C013304D028
:100BC000201C1BF041F8002805D1381C0BB00CBCD0
:100BD00090469946F0BD281C1BF036F88146002847
:100BE00033D1201C002117F05DFC0028EDD001233B
:100BF0000093AC4B4A46281C019308921AF08EF9D8
:100C00006F46B860F960201C1AF088F99D4B9C4A29
:100C1000BA61FB610023F356386179615A1C0ED02A
:100C2000022B0CD068461DF0EBFC002800D1E5E05B
:100C30003B6A002B03D01DF09FFD3B6A0360B8693F
:100C4000F9691AF0BDF9071CBFE7281C002117F04D
:100C500029FC002832D0201C002117F023FC8046FC
:100C6000002869D0012300938E4B281C0193002398
:100C700008931AF053F96F46B860F960201C1AF017
:100C80004DF9814A814BBA61FB610023F35638610B
:100C90007961002B04D07B4B794ABA61FB61CEE7C6
:100CA00068461DF0ADFC002800D1ACE03B6A002B8B
:100CB000C5D01DF061FD3A6A0260C0E740461DF0F4
:100CC00061FC8146002867D04046002117F0EAFB0E
:100CD0004746002800D178E7281C1DF053FC474602
:100CE000002800D171E7201C1DF04CFC002800D129
:100CF0006BE7042300936B4B281C0193002308939C
:100D00001AF00CF96F46B860F960201C1AF006F969
:100D10005D4A5E4BBA61FB610023F356386179612D
:100D2000022B7AD068461DF06BFC002875D03B6A18
:100D3000002B00D183E7BCE7201C1DF023FC00281A
:100D400000D142E7201C002117F0B2FB002800D19F
:100D50003BE701230093534B281C01934346089320
:100D60001AF0DCF86F46B860F960201C1AF0D6F86B
:100D700038617961317800294AD0454A454BBA61DA
:100D8000FB61022934D11DF0F7FC212303603A6A8C
:100D9000002A00D153E74EE7281C1DF0F3FB002882
:100DA00092D0201C1DF0EEFB00288DD040461AF09A
:100DB0004BFF6F46002835D101230093394B089033
:100DC000281C01931AF0AAF8B860F960201C1AF0E8
:100DD000A5F8347838617961002C19D02A482B495C
:100DE000021C0B1C18F0FAFDB861F961022CCAD084
:100DF00068461DF005FC0028C9D1C4E71DF0BCFC05
:100E00002123036014E71DF0B7FC212303604DE7A5
:100E10001D4A1E4BBA61FB61EAE71DF0ADFC2223BF
:100E2000036084E7032300931E4B4A46281C01936A
:100E300008921AF073F8B860F960201C1AF06EF886
:100E40000023F35638617961002B2DD1124A134BE0
:100E5000281CBA61FB61002117F02AFB002845D14C
:100E60000023F356022B05D068461DF0C9FB00286D
:100E700000D01BE71DF080FC2223036016E7C0466C
:100E8000000000000000F03F000000000000000033
:100E9000000000000000F0FF000000E0FFFFEF474F
:100EA000F9000020A4EF02001E4B1D4A281CBA6165
:100EB000FB61002117F0FCFA0028D1D0FC21201C96
:100EC000890517F0FDFE1AF029F8041C0D1C1DF011
:100ED00099FB021C0B1C201C291C17F0A9FA0028E6
:100EE000BED1114A114BBA61FB61B9E7FC21201C4C
:100EF000890517F0E5FE1AF011F8041C0D1C1DF011
:100F000081FB021C0B1C201C291C17F091FA0028E5
:100F1000A6D1074A074BBA61FB61A1E7C046C046AC
:100F2000000000000000F07F000000000000F0FF63
:100F3000000000E0FFFFEFC770B58AB0041C1CF092
:100F4000F1FB274E0023F356051C01330AD0201C69
:100F50001AF07AFE002805D0201C002117F0A8FA0C
:100F6000002802D1281C0AB070BD012300931D4B3C
:100F7000201C01930023089319F0D0FF34780490CB
:100F8000059102900391002C11D1144B124A069244
:100F9000079368461DF034FB002812D0089B002BF5
:100FA00014D1069807991AF00BF8051CDAE70B49DB
:100FB0000948021C0B1C18F011FD06900791022C29
:100FC000E7D11DF0D9FB21230360E7E71DF0D4FB37
:100FD000089B0360E5E7C046000000000000000039
:100FE000F9000020ACEF0200F0B5474680B48AB0AB
:100FF000041C0D1C1CF0F4FB294A0023D356904618
:10100000061C0F1C01330DD0201C291C1DF0C8FA32
:10101000002807D0201C291C204B1F4A17F00EFA6D
:10102000002805D1301C391C0AB004BC9046F0BD24
:10103000012300931B4B049405950193002308930F
:101040004346029403951C78002C0ED1134B124A90
:101050000692079368461DF0D3FA00280FD0089B2C
:10106000002B11D1069E079FDCE70C490A48021CA1
:101070000B1C18F0B3FC06900791022CEAD11DF06E
:101080007BFB21230360EAE71DF076FB089C0460EC
:10109000E8E7C046C046C04600000000000000006F
:1010A000F9000020B4EF0200F0B55F464D4644461B
:1010B0005646F0B4041C50420D1C10435900490818
:1010C000C00F884601438946774985B0161C1F1C0E
:1010D0009B46009401958C46894527D8019841008C
:1010E0004908039000988946009940420843C00F80
:1010F00049460143614519D86C48C01810434BD08C
:1011000099170220084082460198C10F50460843B3
:10111000824600984946084317D1504602285BD0C2
:1011200011DC002811DB201C291C05E0301C391CB7
:10113000221C2B1C18F030F905B03CBC9046994697
:10114000A246AB46F0BD032835D04046024305D148
:101150000399002946DB3F493D48EDE7524B98454E
:101160001FD0514B99453AD048464146431A1B156A
:101170003C2B23DD374936485346012B40D0022B08
:1011800033D0002BD8D0344A344B19F021FB344AE9
:10119000344B19F01DFBCFE7201C291C00F088F808
:1011A000CAE7C14535D05046012842D03CDD02286F
:1011B00012D00328D5D12C482C49BDE75A46002A25
:1011C00022DB321C3B1C201C291C18F007FC1DF0E4
:1011D000CFF900F06DF8CFE721482249ACE7039A38
:1011E000002AB8DA22482349A6E71B4A1B4B19F00C
:1011F000EFFA021C0B1C1A481A4919F0E9FA9BE78E
:1012000080242406091997E73C33DADA1A481B4987
:10121000B2E75246012A17D00EDD022A11D0032A66
:10122000DDD11748174987E700289AD1124813499A
:1012300082E7154815497FE7002AD0D1144815499F
:101240007AE71548154977E71548164974E7C04607
:10125000182D4454FB21F93F075C143326A6A13C0A
:10126000182D4454FB210940182D4454FB2109C07A
:10127000182D4454FB21F9BF0000000000000000BD
:10128000D221337F7CD902C0000000000000008022
:10129000182D4454FB21E93FD221337F7CD90240F1
:1012A000182D4454FB21E9BF0000F07F000010C05E
:1012B000F8B556464D4644465F46C54BF0B44E0021
:1012C000814688468A4676089E420CDDC14B9E4286
:1012D00000DDA7E000D1A2E05046BF4A002800DCB4
:1012E000E3E0BE4BA6E0BE4B9E4200DDB8E0BD4B46
:1012F0009E4200DCA6E001246442A3464A464346DF
:101300004846414618F0D4FF061C0F1C321C3B1CFB
:1013100018F0CEFF8F4B8E4A041C0D1C18F0C8FF2E
:101320008D4A8E4B18F038F8221C2B1C18F0C0FF89
:101330008B4A8C4B18F030F8221C2B1C18F0B8FF8D
:10134000894A8A4B18F028F8221C2B1C18F0B0FF91
:10135000874A884B18F020F8221C2B1C18F0A8FF95
:10136000854A864B18F018F8321C3B1C18F0A0FF79
:10137000834A844B061C0F1C201C291C18F098FF64
:10138000814A824B19F024FA221C2B1C18F090FF82
:101390007F4A804B19F01CFA221C2B1C18F088FF86
:1013A0007D4A7E4B19F014FA221C2B1C18F080FF8A
:1013B0007B4A7C4B19F00CFA221C2B1C18F078FF8E
:1013C000021C58460B1C013000D170E05946CC007D
:1013D000301C391C17F0E0FF4A46434618F068FFFE
:1013E000814D0B1C81492D19021C0C19101C191C54
:1013F0002268636819F0ECF94A46434619F0E8F9A7
:10140000021C0B1C2868696819F0E2F9021C50469E
:101410000B1C00280EDA802000060B180AE00028BA
:1014200000D159E74A4643464846414617F0B4FFC3
:10143000021C0B1C101C191C3CBC90469946A24671
:10144000AB46F8BD584A594B17F0A6FF584A594BBE
:1014500017F008F8002800D14DE74A464346E9E76F
:101460001DF086F8624B041C0D1C9E4230DC614B63
:101470009E4256DC221C2B1C17F08EFF4C4A4D4B13
:1014800019F0A6F94C4A4D4B061C0F1C201C291CB8
:1014900017F082FF021C0B1C301C391C18F09EFA3E
:1014A0008846002181468B4628E7534BC2E7301C13
:1014B000391C17F071FF4A46434618F0F9FE021C2A
:1014C0000B1C4846414619F083F9021C0B1CB1E77E
:1014D0004A4B9E421ADC3A4A3A4B19F079F9384A9B
:1014E000384B061C0F1C201C291C18F0E1FE304A4A
:1014F000304B17F051FF021C0B1C301C391C18F02C
:101500006DFA8146022088468346F7E62E482F4929
:10151000221C2B1C18F062FA8846032181468B4658
:10152000ECE6234A234B19F053F9214A214B061CC0
:101530000F1C201C291C17F02FFF0B1C021C391C30
:10154000301C18F04BFA0123814688469B46D5E6AD
:1015500011DA22E33AAD903FEB0D76244B7BA93FA5
:10156000513DD0A0660DB13F6E204CC5CD45B73F73
:10157000FF8300922449C23F0D5555555555D53F1F
:101580002F6C6A2C44B4A2BF9AFDDE522DDEAD3F13
:101590006D9A74AFF2B0B33F711623FEC671BC3FB3
:1015A000C4EB98999999C93F9C7500883CE4377EB3
:1015B000000000000000F03F0000000000000040BC
:1015C000000000000000F83F000000000000F0BF35
:1015D000FFFF0F440000F07F182D4454FB21F93F1A
:1015E000FFFFDB3FFFFF1F3EC8920200A8920200F0
:1015F000FFFFF23FFFFFE53FFB21F9BFFF7F034005
:10160000024901487047C046000000000000F87F12
:1016100008B5064B064803331B1A062B00D808BD35
:10162000044B002BFBD09847F9E7C046100100207F
:10163000100100200000000008B50748074B1B1AE6
:101640009B10DA0FD318591000D108BD044A002AA4
:10165000FBD09047F9E7C0461001002010010020A0
:101660000000000010B5074C2378002B09D1FFF7CC
:10167000CFFF054B002B02D0044800E000BF012340
:10168000237010BD10010020000000005C6003000A
:1016900008B5094B002B03D00848094900E000BFFA
:1016A00008480368002B03D0074B002B00D0984755
:1016B000FFF7C2FF08BDC046000000005C600300E9
:1016C000140100201001002000000000144B002B2A
:1016D00000D1124B9D46402292029A1A9246002156
:1016E0008B460F461148124A121A27F0F0F90D4B9B
:1016F000002B00D098470C4B002B00D098470020BF
:10170000002104000D000B4827F0B5F81DF0EEFA9B
:101710002000290024F07CFE1DF034F800000800B1
:101720000040002000000000000000001001002028
:10173000E02F00209DEA0100F0B587B000AFFA600D
:10174000061CC26BF8680C1C08181D1C78619042BE
:1017500005D02C497B692C4805F000FF33E07969FE
:101760008C4247D08A00131C0E33DB08DB0068462E
:10177000C01A85466B4600213B6127F0A8F9A200FC
:101780000023934204D0E9583869C1500433F8E784
:10179000F8687A69ED181218FA6003E02A1F1268D7
:1017A00002341A60FA68944223D2286806F0A6F838
:1017B000F16B021CB9600023B868834205D112485E
:1017C000124905F0CBFE12F078F898007860801985
:1017D000016C914201D00133EEE70133EFD039695A
:1017E000786808350B1819680029D7D006480849C9
:1017F000E7E73D697869291C04F0B4FBBD46066043
:1018000007B0F0BD2CF902005CB9020065F90200D6
:1018100086F9020038B50B680C1C5A680549051C8E
:101820001FF037FE2168281C4031221C0DF0A6FA5B
:1018300038BDC0462A230300F0B585B00C1C06F065
:101840005DF80325071C254003D1204B22689A42EE
:1018500005D01F491F4820F0DEF812F02EF8201C9A
:1018600002A903AA1FF09BFC029E039B301C1030B0
:10187000800001931FF01AFA291C3C22041C27F057
:1018800026F9154B67602360144BE663A360144B85
:10189000E360144B6361144BA361144BE361144B7D
:1018A0002362144B6362144B6363B5420AD0019AFE
:1018B000AF00D259E719101C009206F01FF801354D
:1018C0003864F2E7201C05B0F0BDC046D4A5020084
:1018D000B5F902005CB90200249702001518000057
:1018E00039170000E15E0000A15F0000FD18000054
:1018F0009D600000415F0000F8920200136870B51F
:10190000002B11D10468E56BAB4213D09E00A619E1
:10191000366C8E4201D00133F6E7591C0AD00233EF
:101920009B001B58136005E00349044820F073F83E
:1019300011F0C3FF70BDC046C3F9020090B70200AA
:1019400010B54468081C0AF087FE011C201C26F014
:1019500086FC014810BDC046F8E0020010B544689E
:10196000081C0AF079FE011C201C15F0B3FB01488D
:1019700010BDC046F8E0020008B5406815F088FBCD
:10198000002801D0014800E0014808BDB8B20200BB
:10199000FCB2020010B5041C081C0AF05DFE011C1C
:1019A000431005D00549064820F035F811F085FFB1
:1019B000606815F0C5FA034810BDC046D7F90200AB
:1019C0006CB40200F8E0020010B5041C0AF05AFDE5
:1019D000084A904205D0084A904202D0074A9042F5
:1019E00001D1606810BD0649064820F014F811F0D6
:1019F00064FFC0468C940200E09302002894020029
:101A00000DFA02005CB9020013B5041CA06808F0CE
:101A100023FA019000280ED06368074A934205D04C
:101A2000181C0121002201AB08F0CEF80AF05AFF81
:101A30000028EBD0019816BDF8E002008268012171
:101A40000A4201D0034B00E0034B8A438260181C1A
:101A50007047C046B8B20200FCB2020008B5406848
:101A600025F028F8002801D0014800E0014808BD11
:101A7000B8B20200FCB2020082B0000C012804D10E
:101A8000034B9A6802321043986002B07047C04618
:101A90000400002082B0000C012804D1034B9A6896
:101AA00002321043986002B07047C0461000002018
:101AB00037B5084CC025012100950A1C201C064B97
:101AC00013F08CFE0095201C02210122034B13F021
:101AD00085FE37BDEC290020791A0000951A000018
:101AE00008B5043003F016FD004808BDF8E0020018
:101AF00008B504301FF037FD004808BDF8E00200CB
:101B0000F0B50B1C87B0C188051C141C00681A1C9A
:101B100000230AF07FFE061C002C40D0042C14D1B8
:101B200003204643A968012389194A7852001A43C1
:101B300003920A789A401A4304928A7803A99A4039
:101B40001343059304F00EFA2AE0201C032103AA94
:101B50000AF04CFE039B18680AF07EFD039B071CED
:101B600058680AF079FD039B041C98680AF074FD1C
:101B7000FF2F03D8FF2C01D8FF2805D909490A48AF
:101B80001FF049FF11F099FEC0B204350090B1B2C8
:101B9000FAB2E3B2281C1FF0FBFC044800E0201C52
:101BA00007B0F0BD1DFA02006CB40200F8E00200BC
:101BB00073B51C1C081C0023111C02220093131C6B
:101BC0000AF0CAFB20681EF0D3FC061C60680AF00D
:101BD00043FD051E05DC094909481FF01CFF11F0F3
:101BE0006CFE0C201FF062F8064A041CF1B204C01F
:101BF000AAB203F063FC201C76BDC0462CFA02009A
:101C00006CB4020084960200027830B50724A24327
:101C1000022422430270039A7F2405881440044A58
:101C2000E4002A40224302804160836030BDC04608
:101C300007FCFFFF10B5047807239C43194021439C
:101C4000049B01707F2104881940094BC90023407F
:101C50000B43039C03806105064B0468C90A2340BB
:101C60000B430360059C029B42608360C46010BD0F
:101C700007FCFFFFFF03E0FF3E2803D0402809D008
:101C80003C280ED14239C9B22F290AD8084B585CDA
:101C9000012308E0712904D8064B585C064B5B56BB
:101CA00001E001230020002A00D013607047C046E5
:101CB00029FB020045FA0200B7FA020008B55128D4
:101CC00036D00FD8492827D006D842281CD048281B
:101CD0001FD000284BD117E04F2840D042D84C28C5
:101CE0001AD044E0682811D007D864282AD0662882
:101CF00025D062283BD188563AE06C2832D0712832
:101D00000FD0692833D12DE0885C31E05200505E5D
:101D10002EE05200505A2BE09200505823F02EF83B
:101D200029E0D20089180868496822F0FDFF22E006
:101D3000D20089180868496823F011F81BE0920066
:101D4000505805E0D20089180868496819F038F938
:101D50000323984302231843074BC0180BE092005B
:101D6000505808E09200505822F0EDFF03E00020A8
:101D700040000123184308BD00008080F0B587B003
:101D8000151C03AA071C0E1C01931C68FFF774FFA7
:101D90000090402F05D1039B3C275A1EA4185B429C
:101DA0001C40009A3E3FA318019A1360642E09D08C
:101DB000662E02D04F2E22D141E0281C0AF0B0FC42
:101DC000051C3CE0281C0AF0ABFC19F0A7F87D428A
:101DD0007D41EDB204900591AB0006AAD318083BF3
:101DE0001B68291C221C04201EF054FC01235D40AA
:101DF000AD0006AB5D19083D04342D681FE0AA074D
:101E00000CD1154B2A689A4208D179427941C9B25E
:101E1000281C009A231C22F06EFF1BE0281C0AF0ED
:101E20001BFC009B051C042B09D95A2E07D900283E
:101E300005DA1A1C201D043AFF2126F048FE0098FE
:101E4000042800D9042079427941C9B2221C2B1CF4
:101E50001EF020FC07B0F0BDACA9020070B5061C56
:101E60000D1C141C181C642E0CD0662E04D04F2E92
:101E700011D19400635127E094000D190AF050FC31
:101E8000286021E0D4000D190AF04AFC19F046F848
:101E90002860696018E020233343712B0CD10321A3
:101EA000014009D1094B02689A4205D1E4002B197F
:101EB000082222F020FF07E00AF0CEFB291C031CB9
:101EC000221C301C1EF0FCFB70BDC046ACA90200F9
:101ED00070B5041C0D1C10491FF011FA6968201C14
:101EE00001220AF0E9FA0D4E201C311C1FF007FAFE
:101EF000A968201C01220AF0DFFA311C201C1FF007
:101F0000FEF9E968201C01220AF0D6FA201C0449D7
:101F10001FF0F5F970BDC04659FB020060FB0200DE
:101F20001728030070B5061C10200D1C141C1EF091
:101F3000BDFE034B466085600360C46070BDC04653
:101F4000E8960200F8B5041C0D1CA368002B0AD00B
:101F5000324AE968914206D0EB58002B03D0E3687F
:101F600004221A6059E0A86B00281ED0626806217E
:101F7000D3000430194300220CF034FB002814D0A5
:101F8000267C4268E36821680020002E0AD1081EE2
:101F900007D02249EC688C4203D021498D4200D001
:101FA0000069291C07F04CFE37E02368002B03D1A1
:101FB0006B6B002B14D130E0227C002AF8D1174A39
:101FC000E9689142F4D0164A9542F1D018696168E7
:101FD000E26807F077FEE3681B68002BE8D01CE09E
:101FE0005E681F1C0837002E17D00025721E0C4B90
:101FF00095420CD2AA00B958994206D0201CFFF78E
:10200000A1FFE3681B68002B07D10135EEE7054A05
:10201000B618B600F5599D4297D1F8BDD1220000FF
:10202000E8B30200FFFFFF3FF0B5156889B0161C4A
:10203000002D1ED143685F6B002F1AD07B6880682B
:1020400003AC0193083703906160A560E2602574DA
:10205000019B9D4209D0AB00F958201CFFF772FF8D
:102060003368002B05D10135F2E7201C0249FFF748
:1020700069FF09B0F0BDC046E8B3020008B54A6880
:1020800001491FF006FA08BD63FB020070B58AB073
:10209000051C0E1C141C002105A81422009101919E
:1020A00026F015FD2023079300AB089305952968BA
:1020B0001C23002C02D0042C06D11A2305A8069359
:1020C000FFF740FF022105E01B2305A80693FFF759
:1020D00039FF03210098042805D12869311C221CEE
:1020E0000AF04CFC0BE0002809D0002202AB02955C
:1020F0000396049407F068FD042C00D001480AB050
:1021000070BDC046F8E00200F0B5204B82008BB0F5
:10211000D25805AD0023019003AF05916A600E1CF3
:102120001422281C096803937B60AA60EF602B745B
:10213000FFF708FF039C042C05D13169019807F0D3
:10214000DBFC041C1EE0002C0DD0201C311C1FF0F9
:102150008CFE019B041C022B14D10AF0A9FA012465
:10216000400004430EE0019B022B0BD12623281CC8
:1021700031686B60FFF7E6FE3B68002B02D176000A
:1021800001243443201C0BB0F0BDC046A8980200C7
:10219000F0B5131C0C1C161C20215A1E934189B04B
:1021A000C91A03AD04910821002301AA0591071C57
:1021B0002168281C019302932B7403940692FFF765
:1021C000C1FE019B002B08D1002E06D11F23281C25
:1021D00021686B60AE60FFF7B5FE0198042819D145
:1021E00020690AF04FF9164BC2689A420ED1002EB0
:1021F00007D0236858681EF06DFC011C381C1FF0C6
:102200007EF8802221693243381C0BE02169381C9A
:10221000321C07E0002808D0211C1FF026FE0022F7
:10222000011C381C0AF048F908E0201C20F0E9FEE7
:102230000449021C231C381C1FF02BF909B0F0BD07
:102240004574000070FB020038B5041C0D1C0B49DE
:102250001FF055F86968201C00220AF02DF9201C97
:1022600007491FF04CF8A968201C00220AF024F945
:10227000201C04491FF043F838BDC04682FB020011
:1022800060FB0200D52E0300F7B50E1C4168071C49
:102290000025019108372C1C019A954212D0AB0001
:1022A000FB58094A93420BD0084AD968914202D0A0
:1022B0003360013404E0586B311CFFF7E5FF24184C
:1022C0000135E9E7201CFEBDE8B30200D122000081
:1022D000F0B58FB0051C0F1C406B05A9029203934B
:1022E000FFF7D2FF061DB600301C1EF0DFFC0021F8
:1022F000041C20C021F0B3FA321C201C103A10300C
:10230000002126F0E4FB012F04D1039B1B68042B62
:1023100000D182E009A809220023426007AE0C2206
:10232000291C8260C6600374079373600993FFF7EA
:1023300009FE0798042807D10598391CC668029A37
:10234000039BB047206123E0002821D0029A3A4342
:1023500006D1012106AB069507F036FC041C17E0F8
:10236000029B5C003C190134A400201C1EF09EFC62
:10237000221F0190039920C026F087FB3068791C4A
:10238000029A019B07F020FC041C01981EF0B5FC8A
:10239000201C0AF077F8A8423FD10023082209A8A0
:1023A000291C089307930B9309940A92FFF7CAFD1F
:1023B000079B002B31D00299394305D1081C07AA8D
:1023C0001FF05BFD061C1BE0029B5E00BE1902367F
:1023D000B600301C1EF06AFC079B321C0360089B91
:1023E000051C4360083A0399083026F04EFB381C60
:1023F00002992A1C1FF041FD061C281C1EF07DFCC2
:10240000074B9E4209D0301C20F0FBFD0549021C01
:10241000054805F0A3F811F050FA201C0FB0F0BDEC
:10242000F8E002008BFB02005CB9020010B5C46842
:10243000002C06D142680449044805F08FF811F0D9
:102440003CFAA04710BDC046B3FB02005CB90200D5
:10245000F8B5041C0F1C161C1D1C1EF0D7F9002813
:1024600009D1201C20F0CDFD0949021C094805F0C6
:1024700075F811F022FA042801D1206902E0211C2C
:102480000BF0C6FB391C321C2B1C07F09DFBF8BD62
:10249000D0FB02005CB90200F0B5154B89B0161CE8
:1024A0008200D5580C1C0C220021071C684626F01F
:1024B0000EFB03A8182345608360002500AB21684C
:1024C000C36005740394FFF73DFD0098042805D10F
:1024D0002169381C321C07F0FFFC07E0002805D0FA
:1024E0000120291C6A4602961FF0C7FC09B0F0BD06
:1024F00060970200F0B585B0071C0D1C081C161C67
:1025000001A902AA1FF029F90199029800238B4220
:102510000CD09A008258D468002C05D15268234907
:10252000234805F01BF826E00133F0E73C201EF0BD
:10253000CFFB204B041C03601F4B476083601F4B85
:102540004563C3601E4B866303611E4B03A9436151
:102550001D4B83611D4BC3611D4B03621D4B4362C9
:102560001D4BC362281CFFF78FFE012805D91048B8
:102570001A491FF050FA11F0A0F9A06B4E21043057
:1025800000220CF02FF8051E0DD0436803221A40DC
:1025900009D11B685B68F22B05D1031D012110488E
:1025A0001EF08FF96860201C05B0F0BDECFB020046
:1025B0005CB902002497020091210000D1220000A2
:1025C000512400000921000099240000370802006E
:1025D0008D200000890902004309020015FC020059
:1025E0006098020037B51C1C00230D1C0093081CCA
:1025F0000323111C012209F0AFFE012D09D0032D88
:102600000BD1206805F07AF96168A268FFF772FFC4
:1026100009E0206809F036FF05E0034903481FF090
:10262000FAF911F04AF93EBD43FC02005CB9020020
:1026300038B5051C0C200C1C1EF038FB024B456005
:102640000360846038BDC046E8970200F8B50F1CEF
:10265000B8421ED0032505401DD1134B02689A4293
:102660001BD1466B002E1AD074680836002C18D087
:10267000631E9D4208D2AB00F058391CFFF7E6FFFD
:1026800000280FD10135F3E7084BE418A400A05946
:10269000DEE7012006E0002004E0281C02E0301CF8
:1026A00000E0201CF8BDC04624970200FFFFFF3F5A
:1026B000F0B585B0061C0191081C8B0710D10B6882
:1026C000154A934204D10123029301AB03930DE019
:1026D000124A934204D102A903AA1FF03EF805E072
:1026E0000F4910481FF097F911F0E7F8029D039F7A
:1026F0000024AC420BD0A300F9580B4B994208D0F0
:10270000301CFFF7A3FF002803D10134F1E707488D
:1027100000E0074805B0F0BD2497020014AD0200A8
:102720005FFC02005CB90200E8B30200FCB20200E8
:10273000B8B2020008B5820703D1064B02689A427C
:1027400005D0054905481FF066F911F0B6F8FFF706
:10275000AFFF08BD2497020098FC02005CB902009C
:1027600070B5061C0D1C002811DD002906DD15487A
:1027700015F0ECFD0124864213DC11E0C0200006B8
:10278000311C15F0E3FD012485420ADB08E0002935
:1027900009DDC020000615F0D9FD0124864200DBCA
:1027A0000024E4B20BE00024A04208D00548311C0C
:1027B00015F0CCFD0123854200DB231CDCB2201C7C
:1027C00070BDC046FFFFFF3F10B50B1C041C002965
:1027D00006D0054A096802609A6B002304F02CFFBA
:1027E000201C11F06AF8C046D4B90200F0B5041CF0
:1027F00087B0039202936618002A0ED0023A222A6A
:102800000BD93B493B481FF006F911F056F82078E8
:1028100004F0BEFD002803D00134B442F7D30CE02D
:1028200023782B2B02D10134009008E000902D2B4F
:1028300005D101220134009201E000230093311BF5
:10284000201C03AA1EF05DFA241801940025B4424E
:102850000ED22778381C04F0B3FD0399002805D068
:102860003B1C2F3B8B4201DC303F0DE0102904D094
:10287000009A002A15D06D4213E020231F433B1C11
:10288000613B052BF4D8573F281CFFF769FF039BDA
:10289000002818D15D437D196A006A4013D40134C1
:1028A000D5E76D0001231D43019B9C4215D0B44226
:1028B00006D2207804F06CFD00280ED00134F6E733
:1028C000B44212D009E0019A05A80592B11A009A03
:1028D00022F05FFA059C051CE6E707490548039AC4
:1028E00004F03CFE0299FFF76FFF281C07B0F0BD13
:1028F000BBFC02006CB40200DEFC0200074BDB688C
:10290000002B09D05A68904204D3821A04329200F4
:10291000D05802E01B68F3E7181C7047A42E002073
:1029200070B5114D041CEB689868DB6883420FD3C7
:102930000230C0001EF0BAF9EA68D3685668026037
:10294000926899195200826000224160C260E8607A
:10295000EB68D96858684A1C043189000138DA608C
:102960008018CC5070BDC046A42E0020074B4118E3
:10297000884205D25A01D318027801305340F7E754
:10298000D8B2002800D101207047C04605150000CC
:10299000024B034ADA6000229A677047A42E002097
:1029A000D0980200F0B585B0071C0E1CFFF7DEFFC3
:1029B000164B0390DC68002C24D0E368221C0433FF
:1029C0009B001032E31802920193151C019A954264
:1029D00016D22868039A037893420FD14378B34202
:1029E0000CD10230391C321C26F040F8002805D1E9
:1029F000029BE81A63688010C01804E00435E5E71C
:102A00002468D8E7201C05B0F0BDC046A42E0020E5
:102A1000F7B50E1C0190FFF7C5FF021E48D1254CEB
:102A2000F51CA06F002815D0271DFB6FE16F5B1907
:102A30008B420FD969181EF05CF90090002806D16E
:102A4000F96FA06F1EF048F9009AA26702E0E26FEA
:102A5000AB18E367A36F002B12D180277F2D00D91D
:102A60002F1C381C1EF02FF9A067002804D1281C49
:102A70001EF01CF92F1CA067231D0022E767DA67F0
:102A8000221DD36FA46FED18311C0198E418D5678F
:102A9000FFF76CFF321C207066700199A01C25F0B6
:102AA000F4FFA6190023B370201CFFF739FF021CA6
:102AB000101CFEBDA42E0020F0B51D1C00230360D9
:102AC0000B6013602B60194B85B0DC68071C039109
:102AD000161C002C24D0164B9C4221D03B68039935
:102AE00001333B600968E2688B1803990B60E26868
:102AF000231C043292001033A218934206D202CB58
:102B000030684978033041183160F6E72A68201CA4
:102B100002920DF0F5F80299246843182B60D8E76B
:102B200033682A68D3182B6005B0F0BDA42E0020AE
:102B3000D09802000C4B70B5DC68002C13D00B4B06
:102B40009C4210D0E668251C0436B6001035A61944
:102B5000B54206D204CD0649023206481EF099FC61
:102B6000F6E72468E9E770BDA42E0020D0980200A3
:102B700043FD020088A9020073B50090000C431EBB
:102B800001910A2B1AD80E4B01241A88211C81406E
:102B90000A4392B21A800B4B1A780F2A0ED81E786D
:102BA0001A780949E24034408D5CA400A0402843D3
:102BB000C0B288541A780132D2B21A7073BDC046BE
:102BC000082E00201C2E00201D2E0020094A38B59A
:102BD0001378002B0CD1084C2578EDB2002D07D1CD
:102BE000006801231370237003685B6898472570A1
:102BF00038BDC046262E0020252E002010B5041C0E
:102C00000430FFF7E3FF606825F087F8034B80008E
:102C1000C0580623C000184310BDC04690A402004F
:102C200038B50430FFF7D2FF134C2378002B20D0A7
:102C300020780021C0B203F095F900232278934256
:102C400014D20E495A080125895C1D40AD00294166
:102C50000D1C0F210D400A49AD0069589A00C900AA
:102C600006258218294391600133E7E7002323708A
:102C700000E0044838BDC0461C2E00201D2E002058
:102C800090A4020050AD020008B504F037FE002306
:102C9000074A99008A58904201D1D8B208BD013341
:102CA0000C2BF5D1034904481EF0B5FE10F005FECB
:102CB00090A40200B81603006CB4020038B5041CDE
:102CC000081CFFF7E1FF051C201DFFF77FFF606870
:102CD00025F023F8A84201D1014800E0014838BDA1
:102CE000B8B20200FCB2020038B5051C081CFFF7A0
:102CF000CBFF041C281DFFF769FF084B0122198830
:102D0000A240114201D0064800E0064819889143CC
:102D10001980054B00221A7038BDC046082E0020CD
:102D2000B8B20200FCB202001C2E002007B5C0237E
:102D3000009303481B210022024B12F04FFD07BDF8
:102D4000EC290020792B0000F0B589B002AF051CFA
:102D5000FA603B600E1C02F0A1FBA968381C14301D
:102D6000796120F0B7FF7860381C143020F0B2FF92
:102D7000032358437A6880188000B8602C280AD84A
:102D8000BB6869462A33DB08DB00C91A8D4600227E
:102D900002ACBA6005E0B8681C301DF094FF041E58
:102DA000EED0AA687969201C8B1A636039687B6849
:102DB000321CA3610091FB68291C0CF08DF8154EA4
:102DC0006D687268201C62610021756000F074FCFF
:102DD0006369F8607360002807D0022808D17B6817
:102DE00005339B00E3185D6805E0E3681D6802E0B9
:102DF0000022094DFA60BB68002B02D0201C1DF098
:102E00007CFFF968281C002901D010F056FDBD4652
:102E100007B0F0BDA42E0020F8E002001FB501238A
:102E2000041C184001D060104EE0284A94424BD058
:102E3000274A944248D0274A944244D0032323404F
:102E400007D1254A2168914203D1201C21F0B8FF07
:102E50003AE0224A2240062A05D0002B08D1204B16
:102E600022689A4204D1201C01A905F0E3F92BE065
:102E7000201C09F007FB1B4B984207D1FF23DB0501
:102E8000E0180323984316F0BBF91DE0164B984257
:102E900005D1201C694601AA1EF05FFC11E0134B0E
:102EA000984205D1201C694601AA1EF078F908E075
:102EB000201C01A9022220F0BAF8031C201C002BC0
:102EC00002D0019800E0181C04B010BDF8E0020028
:102ED000FCB20200B8B20200ACA90200070080FFF9
:102EE000ECDF02007CCE020014AD0200D4A502008B
:102EF000F7B5051C0F1C00920193002801D046680D
:102F000000E0061C381C431E984130180430800035
:102F10001DF0CCFE0C4B041C03600C4B5B68436043
:102F2000009B8360019BC360002D05D0291CB2006B
:102F30000831103025F0A9FD002F02D00436B6006C
:102F40003751201CFEBDC04638A50200A42E00202B
:102F500070B5061C10200D1C141C1DF0A7FE034BA1
:102F6000466085600360C46070BDC046C0A40200B6
:102F700038B5051C141C1DF045FF024B256063602D
:102F800038BDC046C30D020010B50C1E7F2C06D8FC
:102F900001211DF0A0FF002845D0047043E0224B22
:102FA000994210D802211DF096FF00283BD0402303
:102FB000A2095B42134303703F231C4080235B4202
:102FC0001C4344702FE0194B994214D803211DF083
:102FD00082FF002827D02023220B5B421343A10944
:102FE0003F22037080235B42114014401943234366
:102FF0004170837017E004211DF06DFF002812D08E
:103000001023A20C5B421343210B3F220370802349
:103010005B42114019434170A1091140144019430A
:1030200023438170C37010BDFF070000FFFF000045
:1030300007B5034B00906846019301F081FD07BD81
:10304000C30D0200002805D0012808D18B685B0061
:10305000184307E08B68002B03D0034802E00020F0
:1030600000E002487047C046B8B20200FCB202005D
:103070008268F0B5D60FB61876100023B3420EDA88
:10308000C1689D004D1907492F685418E41AC1689A
:10309000A400095901332960C1680F51EEE70248C5
:1030A000F0BDC046FFFFFF3FF8E0020038B50D1C41
:1030B00083684168041C8B4212D3C900C0681DF0AC
:1030C0000BFE6168A3684A0009496260D21A0133A5
:1030D00052189B00E0609200C018002125F0F7FC18
:1030E000A368E268591C9B00A16002489D5038BD4E
:1030F000FFFFFF3FF8E00200F7B58368051C01926F
:103100004C1003D5E418E243D21714409C4200D976
:103110001C1C0C4F281C391CFFF7C8FFA9680A4B60
:103120004A1EC9188900381C0F1FEB68A24204DD33
:10313000DE59013A5E50391CF6E7019EA4001E518B
:10314000FEBDC046F8E00200FFFFFF3F38B5002596
:10315000041C85601021C0681DF0BEFD0423291CDD
:10316000E0606360102225F0B2FC014838BDC04623
:10317000F8E002007FB5124B02AD0C1C0093043145
:1031800002230138019509F019F923680D4C99685B
:10319000012912D9D8680C4BC918029B89001A1B47
:1031A000561EB24152421A402B794118002B01D0D1
:1031B000064B00E0064B1DF032FF201C04B070BD32
:1031C000C0A60200F8E00200FFFFFF3FFCB20200D1
:1031D000B8B2020070B50C68021CA368002B05D1C0
:1031E0001A491B481EF017FC10F067FB2068012AE3
:1031F00001D04A6801E001225242191C002309F063
:1032000009FBE368A26881005E18013A3568043161
:10321000A260121A59189200301C25F03FFCA368D6
:10322000E06800219A001150616804290BD95B0005
:10323000994208D949088900E0681DF04DFD62688F
:10324000E06053086360281C70BDC046C8160300C8
:10325000C8B5020007B500900191022069461DF033
:1032600041FF694601900220FFF7B4FF00480EBD00
:10327000F8E0020070B50E1C0D49051C1EF03FF869
:103280000024B3689C420ED2002C03D0281C0949AC
:103290001EF035F8F268A3009958281C012209F0A5
:1032A0000BF90134EDE7281C03491EF028F870BD26
:1032B0005A17030060FB02005060030070B503263C
:1032C000041C0D1C0E4028D1174B0968994224D1CB
:1032D000AA688368D1184268914210D904318900E4
:1032E000C0681DF0F9FCA968A268E0608B181A1D7F
:1032F0009B006260C018311C102225F0E8FBA36817
:10330000E1689800AB6808189A00E96825F0BDFBF1
:10331000AB68A168CB18A36003E0201C291C1DF03A
:10332000EAFE024870BDC046D4A50200F8E00200E3
:1033300010B5041C10201DF0B9FC044B8460036020
:10334000034B43600023C36010BDC04634AC020091
:103350000310020038B50B4B051C03600C1C081E43
:10336000042800D204206860AC6080001DF09EFC40
:103370006A68E860121BA40092000019002125F081
:10338000A6FB38BDD4A502007FB50D1C141C122865
:1033900028D004D8052807D0072829D057E0031CD7
:1033A000193B042B40D952E0032010404FD1294B48
:1033B00012689A424CD18A68A36898181DF0B4FE2E
:1033C000AB68061C9A00E968C06825F05EFBA86837
:1033D000F268A36880001018E1689A0025F055FB98
:1033E000301C35E0081C111CFFF768FF281C2FE07B
:1033F000101C03A909F06EF9031C0020834227D09A
:10340000039C844200DA0390039AA86850431DF09D
:103410008BFE041CE368E8680093AA680421039B00
:103420001FF05FFC201C13E0A20701D00A480FE048
:10343000084B22689A42F9D1E368A468C968AA686F
:10344000009408F0BBFA0028F0D0044800E0002007
:1034500004B070BDD4A50200FCB20200B8B20200F4
:10346000F0B50B1C85B0041C151C0327002A2BD1BA
:103470000F4022D15C4A086890421ED101AAA06880
:1034800008F060FA029A0198E368851A91008000BA
:1034900059181818A3689A1A920025F0FFFAA16823
:1034A000E36868186A42800092001818391C25F0F9
:1034B0000EFBA0684519A56092E001A902200194C5
:1034C0000293FFF787FE8BE0042A2DD181683B42EF
:1034D00021D1454A186890421DD1081C01AA191C27
:1034E00008F030FA002805D1A068E16801AA1FF0B1
:1034F0000BFC76E001990298401A1DF015FE8368D6
:10350000051C0198E1689A008300C918E86825F055
:10351000BCFA281C65E01A1C2068002309F07AF91F
:10352000E3688000C0585CE00F4054D12E4A09681F
:10353000914250D1191C01AA806808F003FAAA68C8
:10354000019B02989E18361AE068002E21DDA268C1
:103550006368B118994206D989001DF0BDFBE0608F
:10356000A06833186360019AE368B0189100800086
:1035700059181818A3689A1A920025F08FFA019921
:10358000E268AB6888001018E9689A0025F07DFAB7
:103590001DE09B00C0189200E96825F076FA0199B9
:1035A000A868029AE368401880009100591818181A
:1035B000A3689A1A920025F071FAA168E36870185E
:1035C0007242800092001818391C25F080FAA06819
:1035D0008619A66004E0201C191C2A1C1DF0E6FDBB
:1035E000024805B0F0BDC046E8960200F8E00200CF
:1035F000F0B5224B8DB005AC013800930431019435
:10360000072308F0DBFEA0681D4DA84203D009F097
:1036100023F8C7B200E000276069A84203D01CF07D
:10362000A7FF061C00E01826A069A84202D01CF0E3
:103630009FFF00E019202369AB420DD0181C022126
:1036400003AA09F0D3F8039B18681CF091FF039BB1
:10365000061C58681CF08CFF42B271B203A810F02F
:10366000BFFB03A8059910F097FB03A86168E36806
:103670003A1C10F013FC281C0DB0F0BD88A7020006
:10368000F8E0020008B503F09BFA002801D00248D8
:1036900000E0024808BDC046B8B20200FCB2020019
:1036A00010B5041C08201DF001FB024B44600360B0
:1036B00010BDC04660A80200F0B583699FB00890B5
:1036C0000D91581E08995A1D06339B00CB18920085
:1036D0008A18043304320B930B690A9201216A465B
:1036E00019403F321170032293430C90109312A89B
:1036F00010F0C8F8031E01D000F082FD089A55684A
:10370000D4680D9A002A26D02A785E2A23D00D98F4
:103710000D9300F0B6FCAB786A781B021343B949ED
:10372000EB185B186360EB78083423602368590654
:1037300000D1AFE2109A013B5268900700D49EE29C
:10374000221C08C205236360109B141C1F68109B79
:103750000C3B10933D1C089B6F1C5D602B78181C64
:1037600010385A2801D900F0FCFC14F08DFD5B00E4
:103770005D006200FA046400FA04720080008600B2
:10378000FA0488009D00AE00BD00CC00DA00E9001C
:10379000EE00F60007011B012B013A0157015F0102
:1037A00072018A019701FA04FA04FA04FA04A401E6
:1037B000A6011005AD01B301BD01C501D201DF01B4
:1037C000EA01FA04FA04FA04FA0126029A029A02B9
:1037D000B602CD02D102E402E402D4FFFA04FA04F4
:1037E000FA04FA04FA04FA04FA04FA04FA04EF02F6
:1037F00001031203230331033A034F0360037703EA
:103800009103A3034D0478049F048D04FA04BA03C2
:10381000C603D203DC03EC0306041B043504D50401
:10382000E504F504784B00E0784B6360043400F065
:10383000DBFC774BF9E76B785B06DB173A78D9014D
:103840007F23134052B20B430137002AF6DB00F00E
:103850008BFC00233A78D9017F23134052B25B18C6
:103860000137002AF6DBDB0006221343DDE7FD1CEF
:1038700003232F1C9F4301CF5BE20023D5E70023E6
:103880003A78D9017F23134052B25B180137002ADE
:10389000F6DB9B005B420A995858002800D048E2AA
:1038A0005C485D4900F04CFD00233A78D9017F2344
:1038B000134052B25B180137002AF6DB0A9A9B00CC
:1038C0005B4298581DF0D3FCE7E700203B78C2012B
:1038D0007F2018405BB280180137002BF6DB251DD6
:1038E00006F0AAF800F036FC00203B78C2017F20E9
:1038F00018405BB280180137002BF6DB251D06F05F
:1039000069F800F027FC00213B78CA017F211940AB
:103910005BB289180137002BF6DB20681EF0BDFA78
:1039200024E200213B78CA017F2119405BB289184B
:103930000137002BF6DB2068221C06F0F3F975E74F
:10394000251D06F091F800F005FC251F2168286868
:10395000042209F013F800F02DFC00233A78D90175
:103960007F23134052B25B180137002AF6DB9B001D
:1039700021680A985B42195000F009FC00233A784C
:10398000D9017F23134052B25B180137002AF6DBBE
:103990000A9A9B005B4298582168251F1DF069FC1C
:1039A00000F009FC00203B78C2017F2018405BB288
:1039B00080180137002BF6DB2168251F06F068F818
:1039C00000F0F9FB00203B78C2017F2018405BB279
:1039D00080180137002BF6DB2168251F06F072F8EE
:1039E000E9E300213B78CA017F2119405BB28918C5
:1039F0000137002BF6DB231F1A68206806F0BAF99E
:103A000002E2C0460380FFFFFCB20200F8E00200C1
:103A1000B8B2020058B60200DC160300231F186873
:103A2000043B1A68216808F0A9FF38E100233A78BE
:103A3000D9017F23134052B25B180137002AF6DB0D
:103A40000A989B00C31A1968002900D128E70022B0
:103A50003EE000253B78EA017F251D405BB2AD18B2
:103A60000137002BF6DB0A9AAD00551B28681DF0C4
:103A7000FEFB002800D113E7286800211DF0F9FBA8
:103A8000B2E300203B78C2017F2018405BB280186F
:103A90000137002BF6DB06F009F8A5E300203B78A0
:103AA000C2017F2018405BB280180137002BF6DB83
:103AB00006F016F898E32368B7E62068231FA06095
:103AC0001B68636008348FE3231F19682268216034
:103AD0001A6089E3221F136821682360231C083BB6
:103AE0001868106019607FE3AB786A781B02134393
:103AF000D749ED186F1877E3AA7820686E78079297
:103B000008F0F0FEEF1C251F2C1C002800D16BE3F1
:103B100021E0AA7820686E78079208F0E3FEEF1C97
:103B2000251F2C1C002800D05EE314E0AA78206832
:103B30006E780792EF1C08F0D5FE002800D126E32E
:103B400009E0AA7820686E780792EF1C08F0CAFE98
:103B5000002800D01BE30798BE4903021E437618D5
:103B6000E5E02768261C381C1721221C083606F0C1
:103B7000D9F8381C1621321C06F0D4F80020011C9C
:103B8000321C1EF07AF9AA786B7812021A43109B45
:103B9000EF1C0C331093109BBA181A606B463F331E
:103BA000109A197802252943251D2943516010993F
:103BB00000228A601A70A0600DE02568A64A261CC3
:103BC000083E954209D16560A56003200021321CA2
:103BD0001EF053F93560341C06E3012129402CD036
:103BE0006D10231F012D10D118689B49251C0C3D19
:103BF00019600790216061602A1C032000211EF0DB
:103C00003CF9079A03232A6015E019683068924A44
:103C1000251C103D326007901A6009912260032034
:103C200000212A1C1EF029F9079B09982B60231CF0
:103C30000C3B186005233360E6E033683560251CD3
:103C4000103D23602A1C03201EF017F908F04AFEDD
:103C500000280CD08049109B29605A6801231A4023
:103C60006B463F331A70109B0C3B1093A3E2206805
:103C7000231C2860043C24680C3B1C60ABE7109AB2
:103C80005168012211406A463F321170109A0C3A75
:103C900010924CE5221F1768002B00D1B4E00C3CB9
:103CA000A2E2AA786B7812021A43109BEF1C0C3325
:103CB0001093109BBA181A602978109A40394B4219
:103CC00059416B463F331878490001432143516005
:103CD000109900228A601A7086E2206803F086FC40
:103CE000251F002804D00FF0E3FD2D68139587E20F
:103CF0002368594A2C1C934200D175E25B10DBB259
:103D0000012B00D012E58CE1206806F057F82DE079
:103D1000089BAA786E78DC6020680792EF1C06F09A
:103D200075F8002805D10798043C03021E43BF190B
:103D30005AE260607AE5109B5A6801231A406B468C
:103D40003F331A70109B0C3B10934DE200203B78E0
:103D5000C2017F2018405BB280180137002BF6DBD0
:103D60008300E41A0434211C02F0FCF820603BE2DA
:103D700000203B78C2017F2018405BB280180137D9
:103D8000002BF6DB8300E41A0434211C1DF0EFF94C
:103D9000ECE700233A78D9017F23134052B25B1835
:103DA0000137002AF6DB9B005B4218592168FFF7B8
:103DB0007DF9ECE100203B78C2017F2018405BB226
:103DC00080180137002BF6DB251D1FF073FBC1E1C6
:103DD000251C2168083D043C226828681FF0A2FBCE
:103DE000E9E100233A78D9017F23134052B25B18EE
:103DF0000137002AF6DB01339B005B421859231F71
:103E00001A6821681FF08EFB083CEDE100203B782A
:103E1000C2017F2018405BB280180137002BF6DB0F
:103E20008300E41A0434211C0AF0B4F89EE700234E
:103E30003A78D9017F23134052B25B180137002A28
:103E4000F6DB9B005B42185921681FF0C2FC9EE123
:103E50000380FFFF0080FFFFF8E0020000233A78B4
:103E6000D9017F23134052B25B180137002AF6DBD9
:103E70002268251F022B05D1111C2868CF4AFEF7A6
:103E800051F897E1083C29682068FEF74BF86DE788
:103E900000253B78EA017F251D405BB2AD18013754
:103EA000002BF6DB291C2068221C06F0FBFAC44913
:103EB0006D1813E000253B78EA017F251D405BB2B9
:103EC000AD180137002BF6DB291C221C206806F0F8
:103ED00041FB2A0AFF231A402B40D518AD00641974
:103EE00082E1FD1C03239D43002128680A1C1CF06D
:103EF0007BFB2F1D261D60606DE6FD1C03239D438B
:103F0000261F2868226831681CF06EFB2F1D306068
:103F100061E6FD1C03239D4329796F1D8B00E41A84
:103F2000043428680BE0FD1C03239D432B7980217A
:103F3000DA439200490028686F1DA4181943221C17
:103F40001CF06DFB12E700253B78EA017F251D4040
:103F50005BB2AD180137002BF6DBFF22E809291C04
:103F60005300114003405B189B00E41A231C2D0AE8
:103F700001CB2A4005F028FEF8E600213B78CA0173
:103F80007F2119405BB289180137002BF6DBFF2334
:103F9000CA095B001340CAB29B189B00E41A083C94
:103FA00000202DE000233A78D9017F23134052B23C
:103FB0005B180137002AF6DBFF22181C1040DE09CF
:103FC00055003540411C49198900641A190A1140ED
:103FD000221C1DF052FFC9E600213B78CA017F2157
:103FE00019405BB289180137002BF6DBFF23CA09A1
:103FF0005B001340CAB29B189B00E41A0C3C0120E2
:10400000221C06F029F9B1E66B463F331A78002AE4
:1040100007D0109A516801220A401A70109B0C3B7D
:104020001093109B0B98834213D3109B5B689A07E5
:10403000F4D5109B24685B68032293435C609A600C
:104040001C1C109B08341F68109B0C3B1093FFF73F
:1040500081FB0FF02DFC08990020CC6074E16B7897
:10406000022B01D1043C0BE0002B09D1109B0B9AD1
:10407000934200D262E19868002802D10C3BF6E737
:10408000206806F071FB5DE10D9E2168231F002E64
:1040900002D000210D9E0D911868321C11AB06F064
:1040A000F5FA012810D111992F1C21600FF000FCA6
:1040B000089B109A5F60DC606B463F331B78089862
:1040C0001343036101203FE1002806D1119B043C0A
:1040D000002B00D1394B23600CE002281BD1119832
:1040E00038491DF0A2FC002810D0119803F016FAF0
:1040F000043C2060002E77D0301C33491DF095FC25
:10410000002871D00FF0D4FB139679E00FF0D0FBAC
:10411000119A139274E0043C00203B78C2017F2086
:1041200018405BB280180137002BF6DB251F216891
:104130002A6806F037FB3DE000213B78CA017F2169
:1041400019405BB289180137002BF6DB251C01CD25
:1041500006F03AFB60602EE02068251F1DF0A8FEE7
:1041600029E0AF2B04D8803B5B000122FFF77DFBE9
:10417000BF2B04D8B022D31A9B00FFF78CFBCF2BA8
:1041800007D8C022D31A20680A9A9B009850043C92
:104190002AE0D62B05D8181C2168D03805F0ACFCD5
:1041A000E4E5FA2B12D8251F181CD7382268296895
:1041B00005F092FE28602C1C16E0C046F8E00200D4
:1041C000FFFFFF3F18B7020010BA02005F496048C6
:1041D0001DF021FC041C0FF06BFB0C9B08990633AF
:1041E0009B00CB185C60A7E05A4B1A6B002A01D1E8
:1041F000FFF7B0FA00221C6B1A630FF059FB1394FF
:10420000139B55491868FEF721FA002827D0089A11
:104210005368002B23D01A78432A0ED19878597806
:104220000002DA1C031C08980B43C168D3184360D2
:104230000B1C043BC360FFF75AFA5E2A0FD1089AA1
:104240001398D468231DD36003F068F9089B60605D
:104250005B680898059301334360FFF748FA139BA6
:104260003E4A934238D03E4A934235D0089911A82D
:10427000096811911FF02EFD041C11A81FF02AFDE2
:10428000051C11A81FF026FD089A089B52681B68A0
:10429000011C0293D31A1B1B0122119C20780028B9
:1042A00012D0C60904D11F2606400134400908E097
:1042B0000F26E0270640FF00000107406078023427
:1042C00038431194B34204D213982B1C03F0B4F971
:1042D00002E09B1B1218E0E76B463F331A78002A76
:1042E00008D0109A516801220A401A70109B0C3BAA
:1042F0001093F1E7109A0B98824216D301221A709C
:10430000109B08991B6803224B60109B13985B68F5
:104310009343109A9060134A5A60139A9A601268F5
:104320000C331A60CB60FFF7E2F90C9B0899063357
:104330009B00139ACB185A60022005E00A480B49EB
:104340001DF069FB041C58E71FB0F0BD08170300FF
:1043500004B90200A42E002018B7020028B50200FC
:1043600088BA0200F8E00200A8B402002217030095
:10437000002805D0012808D18B685B00184307E0AE
:104380008B68002B03D0034802E0002000E00248C5
:104390007047C046B8B20200FCB202007FB5041CF0
:1043A0000122081C01A908F01DFB002221794020F0
:1043B000FDF762FC061C311C029813F079FF63685C
:1043C000051C1A0A824208D2A368C1187143E0682A
:1043D0001CF082FC2379E06003E0121A1202DBB2C7
:1043E0001343A06863607043E368321C6A43181883
:1043F000019924F04AFBA36802485D19A56004B046
:1044000070BDC046F8E00200F8B54368041C0F1CFC
:104410001D0A1CD101792A1C4020FDF72DFC2279B0
:10442000A16880231B0113430831061C41436360CC
:10443000E0681CF051FC6368E0601A0AA368013A66
:10444000013372435E43291C801924F040FB3B1C5E
:104450002079E168A268FDF701FDA36803480133F4
:10446000A3606368013BFF3B6360F8BDF8E00200B6
:1044700010B5041C10201CF02BFC024B44600360A0
:1044800010BDC046C4A802000A7970B5041C0D1CFA
:10449000002A09D119491CF032FFE968AA68201CDA
:1044A000012303F06BF923E015491CF0F2FFAB6820
:1044B000002B1DD0201C13491CF021FF0026AB68E7
:1044C0009E4211D2002E03D0201C0F491CF017FF72
:1044D000321CE9682879FDF7F1FB0122011C201C40
:1044E00007F0EAFF0136EAE7201C08491CF007FF45
:1044F000201C07491CF003FF70BDC0464117030094
:104500004D1703005817030060FB020050600300C2
:1045100017280300F8B5051C0F1C4020291C002299
:10452000FDF7AAFB061E05D10C490D481DF073FAD4
:104530000FF0C3F910201CF0B9FB041C002D01D1B1
:10454000084B00E0084B2360381CEBB2A7607043B7
:1045500063601CF0ABFBE060201CF8BD5C1703003F
:104560006CB402003CA9020000A90200F0B5061CD0
:1045700089B00D1C141C122832D02CD8052800D06C
:1045800081E002AE081C0122311C1CF074FE201CCC
:1045900005A9012208F026FA0022317A4020FDF711
:1045A0006BFB071C391C069813F082FEA968041CDB
:1045B0006118307AFFF7AEFF0299051C7268C06877
:1045C00024F063FAEA687068059910183A1C62438F
:1045D00024F05BFA08E01B283BD01F2806D052E0ED
:1045E000081C111CFFF7DAFE281C4DE0101C05A961
:1045F00001221EF01CFD0323002813D01D4240D1D0
:10460000224B2A689A423CD102A9281C01221CF0A4
:1046100032FE012000900399059A069B02981DF036
:104620002CFA2AE0E20711D41C4203D1184B22686D
:104630009A420BD0032222400023022A04D1154BB8
:104640001C40A31F5C1EA341002B1AD0124806F089
:1046500073F9081C012202A91CF00DFE201C05A9FB
:1046600001221EF0E4FC00280BD0069B039A009365
:10467000301C0299059B1EF068FB002801D00748FA
:1046800002E0074800E0002009B0F0BD3CA90200AC
:10469000ACA90200070080FFD1230300B8B20200DA
:1046A000FCB20200F0B5041C87B00E1C002808D034
:1046B0008A0724D10B68274A934202D0264A9342A4
:1046C0001DD1301C03A901221EF0B1FC002816D018
:1046D0000022211C4020FDF7CFFA071C391C04984A
:1046E00013F0E6FD061C311C201CFFF713FF3A1CDB
:1046F000051C72430399C06824F0C7F926E0301CFA
:1047000008F0CAF8002801D0471000E0071C391C47
:10471000201CFFF7FFFE051C301C05F04FFB002698
:104720000090009805F098FB031E0FD0002F04D1D5
:10473000281C191CFFF768FEF3E7721C0192201C6D
:10474000321CE968FDF78AFB019EEAE7281C07B0E6
:10475000F0BDC046B0C502003CA902007FB5041CF4
:104760000B1C151E3ED003260E40816827D11F4A20
:104770001868904223D1081C01AA191C07F0E2F81E
:10478000002802D11A4806F0D7F8321C042D2AD18D
:1047900021794020FDF770FA029A019B061CD11A7C
:1047A0002079FFF7B7FE0199029A051C521A72434D
:1047B0004E43E168C068891924F067F912E01A1CB9
:1047C0002068002308F026F8E168021C2079042DF7
:1047D00003D1FDF773FA021C05E02B1CFDF73EFB2D
:1047E000044A00E02A1C101C04B070BDE8960200C8
:1047F00069170300F8E0020037B50C1C111C0022F9
:104800001D1C0092201C012307F0A6FD002C04D1E2
:10481000201C211CFFF77EFE1BE02968CA0705D477
:104820008B0713D10B4B0A689A420FD1081C07F073
:1048300013FF051C291C0020FFF76CFE0021041C3F
:104840002A1CC06824F043F9201C02E00020FFF776
:1048500029FF3EBDACA90200F0B587B0051C0D983C
:104860000392841A0CAA12780591101C2021884307
:1048700006D0302A09D1274910220491019208E07C
:10488000254810210490019103E00CAA0120049214
:10489000019080221A4005D0E30F1B195B10E71A24
:1048A0001C1C03E001210B4012D11F1C002C12DD47
:1048B000261C019902968E4200DD02912868049917
:1048C000029A6B6898470298361A002EF1DC03E0D2
:1048D000271C141C00E000240399002906D0286836
:1048E0000599039A6B68984703982418002F0DDDEB
:1048F000E41901993E1E8E4200DD0E1C28680499C1
:10490000321C6B689847BF1B002FF2DC201C07B0DD
:10491000F0BDC046AC170300BD170300F0B593B05F
:104920001F1C18AB10CB0D1C1B780590161C069392
:10493000E9070BD4AA0703D17F4B2968994205D018
:10494000281C07F089FE01254000054381231C42F5
:1049500009D1069A302A06D11A9B1B998B4200DA9C
:104960001A9100221B92281C20F0CAF90AAB0028D9
:104970000BDDA10703D52B221A70013305E0620776
:1049800003D520221A706B462933E10618D5022E72
:1049900003D130221A707A1C10E0082E08D1302280
:1049A0001A70A20501D401330AE03A1C0E3205E068
:1049B000102E05D130221A703A1C17325A70023369
:1049C0000AA9591A00220491A106C9171A702C23AA
:1049D0000B400EA90B9110210C911B990D920129EE
:1049E00001DD40210C43272169440A704022224006
:1049F00007920799FAB20096002915D0002101917B
:104A0000029203930BA82B1C0CA90DAA00F07AFAB2
:104A10000378061C2D2B12D127226A4413700D9B9C
:104A20000136013B0D930AE00AA90191029203931A
:104A30000BA80CA90DAA2B1C00F064FA061C1B9BEA
:104A4000012B2DDD0D9B1B9F9F4200DA1F1C079938
:104A5000002907D06B4627331B785A1E9341049ACE
:104A6000FF18BF181A9B9F4207DA01252540DF1B5C
:104A7000002D04D03D1C002701E000252F1C012340
:104A80009C43002F0FD020230022009301972B4935
:104A90000598131CFFF7E0FE3021071C069104E087
:104AA00000252F1C01E030220692630620D56946BE
:104AB00027310B78002B0AD00023012200930192AA
:104AC0000598FFF7C9FE1A993F1801391A91049AFF
:104AD000002A0DD000230122009301920AA9059813
:104AE000049AFFF7B9FE1A9B04993F185B1A1A93B0
:104AF0001B9A012A00DD1A92069B1A9900930191D4
:104B00000598311C0D9A231CFFF7A6FE3F18002DB7
:104B100009D0202300220093019505980749131C12
:104B2000FFF79AFE3F180B980EAB984201D01CF08D
:104B3000E4F8381C13B0F0BDACA90200D123030087
:104B4000F0B58DB0071C069200240D1C2B78002BAD
:104B500009D18D420BD96E1A3868321C7B68984790
:104B6000A419291C03E0252BF3D00135EEE70B78BF
:104B7000002B00D13AE10131049120210991002656
:104B800004990B78002B12D02D2B01D1012302E0C8
:104B90002B2B02D102231E430FE0202B01D1042333
:104BA000F9E7212B01D10823F5E7302B02D00022B1
:104BB000079206E0402216430993049B01330493B5
:104BC000DEE704990B781A1C303A092A09D80799AC
:104BD0000A224A43D318049A303B013207930492C5
:104BE000EFE72E2B25D14B782A2B04D00131002260
:104BF000049108920BE00699049B09680233049320
:104C0000CB43069DDB1719400435089115E0049944
:104C10000B781A1C303A092A09D808990A224A4303
:104C2000D318049A303B013208930492EFE7069DB3
:104C300003E001235B42069D0893049A04991378CC
:104C40006C3B5A425341C9180A7804910592002AD4
:104C500000D1CBE0642A00D189E015D8502A00D1D8
:104C600093E005D8131C453B022B00D89DE0B3E030
:104C7000059B622B1BD033D8582B00D0ACE0291DEC
:104C800006914123296884E00599712934D005D81B
:104C9000672900D889E0702977D09DE0059A752AA8
:104CA00058D0782A71D0732A00D095E036E02B1DB9
:104CB00006932B68002B07D00999079A009101925F
:104CC000381C4C49042206E00799099B01914A4986
:104CD0000093381C0522331CFFF7BEFD241882E028
:104CE0002B682A1D0BA90B700692099B079A00934B
:104CF0000192381C0122EEE72B1D0BA928680693B0
:104D00001BF0EDFE089A011C013201D10B9B0893A8
:104D1000099A079B00920193381C11E0291D2D6808
:104D20000691002D0ED0089A013203D1281C23F0E1
:104D3000C4FF08900799099B01910093381C291C16
:104D4000089AC8E7099A079B00920193381C2B49DF
:104D50000622C0E7291D6123099A0691296800935C
:104D6000079B029201960393381C00220BE0291D39
:104D70006123099A069129680093079B0292019684
:104D80000393381C01220A230CE0291D069129688F
:104D90006123099A0093079B029203930196381CA2
:104DA000002210231CF0B9FA98E7072307359D432A
:104DB000291C083106912868696816F001F9099ADA
:104DC000079B0092089A011C01930292381C059AD5
:104DD000331C1CF010FB81E73868049901227B68C2
:104DE00098470134069504990131AEE6201C0DB0B8
:104DF000F0BDC0469A1703009F170300A5170300D4
:104E00007FB54B680E1C5C106846211C1CF011F825
:104E1000029D0021281C221C23F059FE306801212C
:104E2000014004D1221C2B1C1FF065FF08E0042C5C
:104E300000D9042443100021201C2A1C1BF02AFC4A
:104E40006946024802F004FD04B070BDB0C502001E
:104E5000F0B5002685B00D1C1F1C081C0096111C07
:104E60000223321C07F078FAB54242D03C68201C7D
:104E7000012D2FD12C423DD103232340B34203D136
:104E80001D4A2168914235D01C4A2240062A06D08C
:104E9000002B0CD123689A69194B9A4207D103A9B8
:104EA000201C03F0C7F900220399131C1EE0032302
:104EB000221C1A40022A06D1FF22D205A0189843CC
:104EC0000CF010F916E0201C07F0C6FB012340008F
:104ED00018430FE003A903F0ADF9051C7868039CA3
:104EE00007F0BAFB211C021C331C281CFDF77EFCBA
:104EF00000E0012005B0F0BDACA90200070080FF72
:104F000035880000F0B58DB0099214AA1278051CFE
:104F10000B9215AA12780E1C0892D90706D5181CF8
:104F200007F09AFB041E1BDB00221BE0990710D13F
:104F3000574A196891420CD1129A13990092019123
:104F40000B9A089902920391099A311C1FF0AAFE4C
:104F50009CE02A6800230999137028680B6095E08B
:104F600044422D22129B0021023B079205911E2BE9
:104F70001DD8484B129A2020995C13F099F9089B90
:104F8000C0B20690059F002B04D00130032113F01E
:104F90008FF9071C1399002903D0081C23F08DFEFC
:104FA00000E01398069B0333DF193F180597059A15
:104FB00033689A4205D9101C1BF078FE05992860C9
:104FC00031602A68059B0692D618771E00233B7035
:104FD0009C4203D1023E302333702EE00A97201CFE
:104FE000129913F009FA201C0E1C129913F0AEF955
:104FF000331C041C3033092E02DD0B9B0A3BF318D3
:1050000008997E1E3370002912D0002C15D0069A04
:10501000964212D90A998B1B032B01D0371CDEE76D
:10502000089A069BBE1E32709E4206D90A96F5E784
:1050300006998E4201D9002CF0D1139A002A0ED085
:10504000101C23F03AFE069B301A984207D9002321
:105050001399CA5C002A14D0C2540133F8E7079AA6
:10506000002A05D0069B9E4202D90799013E317065
:105070002F68059A099BBF18BF1B013F1F60301C9A
:1050800004E00799061C0029EFD1F1E70DB0F0BD4F
:10509000ACA90200CE17030038B50D1C111C144A30
:1050A000914202D1291C012204E0124A914204D10A
:1050B000291C032204F010FF19E0072816D10E4A1C
:1050C0000A40062A0FD000208B0710D10C680B4A2B
:1050D000944208D00A4A944205D00A4A944202D027
:1050E000094A944203D107202A1CE3E7002038BD77
:1050F000FCB20200B8B20200070080FFECDF020041
:10510000B0C5020014AD0200D4A5020008B507F036
:1051100007FB034B184002231843024BC01808BD7D
:10512000FCFFFF7F0000808008B507F0F9FA16F059
:105130008BFD002801D1024800E0024808BDC046AE
:10514000B8B20200FCB2020008B507F0E9FA16F0A6
:105150007BFD012801D1024800E0024808BDC0469D
:10516000B8B20200FCB2020008B507F0D9FA16F096
:105170006BFD012801D9024800E0024808BDC04685
:10518000B8B20200FCB202001FB50023019307F081
:10519000C7FA01A916F0C6FD0323021C0849022024
:1051A0009A43024352180292019A9A43131C0343F2
:1051B0005B1802A9039300F0D5FE05B000BDC04600
:1051C0000000808038B50D1C07F0AAFA041C281CCA
:1051D00007F0A6FA14F014F8011C201C16F07EFD4E
:1051E0000323984302231843014BC01838BDC0461F
:1051F000000080801FB50023019307F091FA01A9F8
:1052000016F040FD032302249843074B2043C018A7
:10521000029001981FF097FD02A90390201C00F056
:10522000A1FE04B010BDC0460000808038B50D1C42
:1052300007F076FA041C281C07F072FA011C201CE7
:10524000FBF7D6FB0323984302231843014BC018F6
:1052500038BDC0460000808038B50D1C07F060FAEC
:10526000041C281C07F05CFAC30F6000DB07400831
:105270001843032398430224014B2043C01838BD30
:105280000000808038B50D1C07F04AFA041C281C69
:1052900007F046FA011C201C16F0F8FE0323984381
:1052A00002231843014BC01838BDC046000080805F
:1052B00008B507F035FA16F0CBFA0323984302231A
:1052C0001843014BC01808BD0000808008B507F0E6
:1052D00027FA16F08BFE0323984302231843014B51
:1052E000C01808BD0000808008B507F019FA16F054
:1052F0002DFE0323984302231843014BC01808BD19
:105300000000808008B507F00BFA16F0F5FD0323C6
:10531000984302231843014BC01808BD0000808049
:1053200008B507F0FDF916F0A7FD03239843022303
:105330001843014BC01808BD0000808008B507F075
:10534000EFF916F0F3FB0323984302231843014BB4
:10535000C01808BD0000808008B50349034802F06A
:10536000FDF80EF0AAFAC046EF1703006CB4020075
:1053700070B5061C08680D1C07F0D2F90021041C4A
:1053800013F0A0F8002801D0FFF7E6FF201CFBF780
:105390008FFB041C012E06D103239C4302200D4BDE
:1053A0000443E01815E0686807F0BAF90021051C0D
:1053B00013F088F80028E7D1281CFBF779FB011CC3
:1053C000201C13F099FA032398430224014B204335
:1053D000C01870BD0000808008B507F0A1F9FBF788
:1053E0008BFA0323984302231843014BC01808BDCE
:1053F0000000808038B50D1C07F092F9041C281CB1
:1054000007F08EF9011C201CFBF7CAFB032398430D
:1054100002231843014BC01838BDC04600008080ED
:1054200010B507F07DF90021041C13F041F80028A5
:1054300001D0FFF791FF201CFBF77EFD032398436B
:1054400002231843014BC01810BDC04600008080E5
:10545000034B82B001AA0833DA6702B07047C04636
:10546000A42E0020034B82B00833D86F01ABC01AC2
:1054700002B07047A42E0020014B8833186070479B
:10548000A42E002008B5034903481CF0BDFA0EF015
:1054900014FAC04626090000A8B4020007B5064B5E
:1054A0001A1C08328833D16F1B6801AA8A1A9A42E3
:1054B00001D3FFF7E7FF07BDA42E0020F8B50327AF
:1054C000041C381C50430E1C151C19F085FC606030
:1054D000E02040003218A023DB0592002670658092
:1054E000D7500122B240161C094A9E500023AB42FD
:1054F0000CDA03215943666800227254666801334E
:1055000070184270606841188A70F0E7F8BDC046B4
:105510000C050000F7B5037801229A40131CA02166
:10552000814AC905071C8B5032200138C046C0464D
:10553000C046C046C046C046C046C046C046C0463B
:10554000C046C046F1D1EFF31081019172B67E885A
:105550000025009600998D4200DB1CE103246C437A
:105560007E6800213419605CC00984466646A0202C
:10557000C005002E0DD0A126F6008351C046C046BE
:10558000C046C046C046C046C046C046C04683501E
:105590000CE0A126F6008351C0468350C046C046A9
:1055A000C046C046C046C046C046C046605C844651
:1055B0006646A020C00576060DD5A126F6008351CB
:1055C000C046C046C046C046C046C046C046C046AB
:1055D000C04683500CE0A126F6008351C04683509C
:1055E000C046C046C046C046C046C046C046C0468B
:1055F000605C84466646A020C005B6060DD5A1268F
:10560000F6008351C046C046C046C046C046C046AC
:10561000C046C046C04683500CE0A126F600835128
:10562000C0468350C046C046C046C046C046C0467D
:10563000C046C046605C84466646A020C005F606AB
:105640000DD5A126F6008351C046C046C046C046CF
:10565000C046C046C046C046C04683500CE0A126A6
:10566000F6008351C0468350C046C046C046C0467F
:10567000C046C046C046C046605C84466646A02020
:10568000C00536070DD5A126F6008351C046C04699
:10569000C046C046C046C046C046C046C04683500D
:1056A0000CE0A126F6008351C0468350C046C04698
:1056B000C046C046C046C046C046C046605C844640
:1056C0006646A020C00576070DD5A126F6008351B9
:1056D000C046C046C046C046C046C046C046C0469A
:1056E000C04683500CE0A126F6008351C04683508B
:1056F000C046C046C046C046C046C046C046C0467A
:10570000605CA026F605800710D5A120C0003350AC
:10571000C046C046C046C046C046C046C046C04659
:10572000C046B3500FE0C0460C050000A120C000E9
:105730003350C046B350C046C046C046C046C046BF
:10574000C046C046C046665CB4466046A026F60524
:10575000C0070DD5A120C0003350C046C046C0468A
:10576000C046C046C046C046C046C046B3500CE026
:10577000A120C0003350C046B350C046C046C0460A
:10578000C046C046C046C046C0460131032900D0CD
:10579000E9E60135DEE6019880F31088F7BDC046E2
:1057A000F0B5071C443787B0041C381C01911BF06E
:1057B0005EFB00262069411C18D00A2804D1201C59
:1057C0001BF0FEFE0126F5E701F0E2FD002823D1E3
:1057D0002369232B08D1201C1BF0F2FE2369581CDF
:1057E000E8D00A2BF7D1E5E75C2B07D0E369256AFF
:1057F0000199A363E563002912D117E0201C1BF077
:10580000DFFE22690A2A07D0E369266AA363E663FA
:105810000423403423702BE3201C1BF0D1FEC9E786
:10582000012B03D1012D01D00622B4E1636A002BC4
:1058300004DA221C0721403211702FE0002B06D021
:10584000221C062140321170013B6362ECE1002E04
:1058500038D0A26A002A35D1231C052140331970A3
:10586000BD4E6262226B606B91194900095A013D7D
:105870008D4200D1D8E113D9E16A8A4207D30831B9
:1058800049001BF029FAE36A60630833E362236B83
:10589000606B5A1C5B0022631D52636A0133D4E7BC
:1058A000216BAD4E8A195200125A954205D2626A96
:1058B0000139013A21636262F2E7954200D1B3E116
:1058C00002226AE12069411C1BD1226BA24E616B4E
:1058D00093195B005A5A231C4033002A00D15CE123
:1058E00005221A70002363629B48236B1A1852002A
:1058F000525A002A00D197E1013B2363636A013BBE
:10590000F1E7272804D0031C223B5A42534100E010
:105910000123002B31D1752807D01023011C994396
:105920000B1C623B5A42534100E00123002B09D07B
:105930006369272B03D0223B5A42534100E00123E5
:10594000002B1AD10023722803D16369623B5A42AB
:105950005341002B07D1622803D16369723B5A423D
:105960005341002B31D0A369272B03D0223B5A424D
:10597000534100E00123002B27D0251C403575281A
:1059800004D1201C1BF01CFE00261CE062280ED156
:10599000201C1BF015FE206900260396722800D0FB
:1059A00070E1201C01261BF00BFE03966AE1002625
:1059B0000396722800D069E1201C1BF001FE2069CB
:1059C0006228EED00126039660E101F0EDFC012291
:1059D000131C002808D123695F2B04D07F229A4230
:1059E0009B415B4200E0131C002B26D0231C0822A5
:1059F00040331A70217C381C1BF092FA201C1BF0DB
:105A0000DFFD2069411C00D10EE101F0CDFC012237
:105A1000131C002808D123695F2B04D07F229A42EF
:105A20009B415B4200E0131C0120002B02D1206946
:105A300001F0C6FCC207DDD4F6E0206901F0C0FC2D
:105A4000002808D02169251C40352E290CD10A23B5
:105A50002B70002633E023692E2B55D1606901F0AD
:105A6000AFFC0028EED14FE009232B70002630292F
:105A700025D16669202333430126622B1FD06F2B6B
:105A80001DD01E1C783E73425E4118E02D2916D0B1
:105A90002069411C00D1C7E0002E17D12023011C32
:105AA0009943452912D10A2365212B70381CFDF733
:105AB0006BFA201C1BF084FD21692B29E6D1381CD0
:105AC000FDF762FA201C1BF07BFDE1E701F06CFCA6
:105AD00000280AD021692E2910D02023081C9843C1
